:0802AC000206040C080901031D
:0702A400010C00020D003CFB
:10018A00AB07AA06E4F9F8FF7E877D937C03120287
:10019A004FE47B08FAF9F812024F8E0A8F0BAB076D
:1001AA00AA06E4C39BFFE49AFE74019400FDE4945A
:1001BA0000FCE4FB7A01F9F812024F8F8CAE0AAF09
:1001CA000BAB07AA06E4C39BFFE49AFE74019400F2
:1001DA00FDE49400FCE4FB7A01F9F812024FAF0344
:0201EA008F8AFA
:0101EC0022F0
:10029300758901AF0EAE0D12018AD2AFD2A9D28CED
:0102A3002238
:03000B000201ED02
:1001ED00C0E0C0F0C083C082C0D075D000C000C0D8
:1001FD0001C002C003C004C005C006C007AF0EAEEB
:10020D000D12018AAF0CEF3395E0FE74AC2FF58221
:10021D0074023EF583E493F5A0050CAF0CEF75F079
:10022D000812000E85F00CD007D006D005D004D0F2
:10023D0003D002D001D000D0D0D082D083D0F0D066
:02024D00E0329D
:0800030075A00312029380FEB8
:030000000200FEFD
:0C00FE00787FE4F6D8FD75810E02014504
:10000E00C2D530F707B2D563F0FF05F030E70CB27A
:10001E00D5F4048463F0FF05F080018430D502F43A
:02002E000422AA
:10024F00C2D5E830E70FB2D5E4C39BFBE49AFAE4DA
:10025F0099F9E498F8EC30E717B2D512028512003D
:10026F006CE4C39BFBE49AFAE499F9E498F88003F1
:10027F0012006C30D50DE4C39FFFE49EFEE49DFD9C
:04028F00E49CFC22CD
:10010A00020003E493A3F8E493A34003F68001F208
:10011A0008DFF48029E493A3F85407240CC8C333F6
:10012A00C4540F4420C8834004F456800146F6DFC5
:10013A00E4800B01020408102040809002A4E47EAF
:10014A00019360BCA3FF543F30E509541FFEE493BA
:10015A00A360010ECF54C025E060A840B8E493A381
:10016A00FAE493A3F8E493A3C8C582C8CAC583CAAC
:10017A00F0A3C8C582C8CAC583CADFE9DEE780BE64
:0102AB000052
:1000300075F008758200EF2FFFEE33FECD33CDCC87
:1000400033CCC58233C5829BED9AEC99E58298400A
:100050000CF582EE9BFEED9AFDEC99FC0FD5F0D6E7
:10006000E4CEFBE4CDFAE4CCF9A88222B800C1B911
:100070000059BA002DEC8BF084CFCECDFCE5F0CB4F
:10008000F97818EF2FFFEE33FEED33FDEC33FCEB88
:1000900033FB10D703994004EB99FB0FD8E5E4F943
:1000A000FA227818EF2FFFEE33FEED33FDEC33FC30
:1000B000C933C910D7059BE99A4007EC9BFCE99A24
:1000C000F90FD8E0E4C9FAE4CCFB2275F010EF2F69
:1000D000FFEE33FEED33FDCC33CCC833C810D70769
:1000E0009BEC9AE899400AED9BFDEC9AFCE899F8A4
:0E00F0000FD5F0DAE4CDFBE4CCFAE4C8F92237
:00000001FF
